{
  "contractName": "Election",
  "abi": [
    {
      "inputs": [],
      "stateMutability": "nonpayable",
      "type": "constructor"
    },
    {
      "inputs": [],
      "name": "admin",
      "outputs": [
        {
          "internalType": "address",
          "name": "",
          "type": "address"
        }
      ],
      "stateMutability": "view",
      "type": "function",
      "constant": true
    },
    {
      "inputs": [
        {
          "internalType": "uint256",
          "name": "",
          "type": "uint256"
        }
      ],
      "name": "candidateCount",
      "outputs": [
        {
          "internalType": "uint256",
          "name": "",
          "type": "uint256"
        }
      ],
      "stateMutability": "view",
      "type": "function",
      "constant": true
    },
    {
      "inputs": [
        {
          "internalType": "uint256",
          "name": "",
          "type": "uint256"
        },
        {
          "internalType": "uint256",
          "name": "",
          "type": "uint256"
        }
      ],
      "name": "candidateDetails",
      "outputs": [
        {
          "internalType": "uint256",
          "name": "candidateId",
          "type": "uint256"
        },
        {
          "internalType": "string",
          "name": "header",
          "type": "string"
        },
        {
          "internalType": "string",
          "name": "slogan",
          "type": "string"
        },
        {
          "internalType": "uint256",
          "name": "voteCount",
          "type": "uint256"
        }
      ],
      "stateMutability": "view",
      "type": "function",
      "constant": true
    },
    {
      "inputs": [
        {
          "internalType": "uint256",
          "name": "",
          "type": "uint256"
        }
      ],
      "name": "electionDetails",
      "outputs": [
        {
          "internalType": "string",
          "name": "adminName",
          "type": "string"
        },
        {
          "internalType": "string",
          "name": "adminEmail",
          "type": "string"
        },
        {
          "internalType": "string",
          "name": "adminTitle",
          "type": "string"
        },
        {
          "internalType": "string",
          "name": "electionTitle",
          "type": "string"
        },
        {
          "internalType": "string",
          "name": "organizationTitle",
          "type": "string"
        }
      ],
      "stateMutability": "view",
      "type": "function",
      "constant": true
    },
    {
      "inputs": [],
      "name": "electionId",
      "outputs": [
        {
          "internalType": "uint256",
          "name": "",
          "type": "uint256"
        }
      ],
      "stateMutability": "view",
      "type": "function",
      "constant": true
    },
    {
      "inputs": [
        {
          "internalType": "uint256",
          "name": "",
          "type": "uint256"
        }
      ],
      "name": "end",
      "outputs": [
        {
          "internalType": "bool",
          "name": "",
          "type": "bool"
        }
      ],
      "stateMutability": "view",
      "type": "function",
      "constant": true
    },
    {
      "inputs": [],
      "name": "owner",
      "outputs": [
        {
          "internalType": "address",
          "name": "",
          "type": "address"
        }
      ],
      "stateMutability": "view",
      "type": "function",
      "constant": true
    },
    {
      "inputs": [
        {
          "internalType": "uint256",
          "name": "",
          "type": "uint256"
        }
      ],
      "name": "start",
      "outputs": [
        {
          "internalType": "bool",
          "name": "",
          "type": "bool"
        }
      ],
      "stateMutability": "view",
      "type": "function",
      "constant": true
    },
    {
      "inputs": [
        {
          "internalType": "uint256",
          "name": "",
          "type": "uint256"
        }
      ],
      "name": "voterCount",
      "outputs": [
        {
          "internalType": "uint256",
          "name": "",
          "type": "uint256"
        }
      ],
      "stateMutability": "view",
      "type": "function",
      "constant": true
    },
    {
      "inputs": [
        {
          "internalType": "uint256",
          "name": "",
          "type": "uint256"
        },
        {
          "internalType": "address",
          "name": "",
          "type": "address"
        }
      ],
      "name": "voterDetails",
      "outputs": [
        {
          "internalType": "address",
          "name": "voterAddress",
          "type": "address"
        },
        {
          "internalType": "string",
          "name": "name",
          "type": "string"
        },
        {
          "internalType": "string",
          "name": "phone",
          "type": "string"
        },
        {
          "internalType": "bool",
          "name": "isVerified",
          "type": "bool"
        },
        {
          "internalType": "bool",
          "name": "hasVoted",
          "type": "bool"
        },
        {
          "internalType": "bool",
          "name": "isRegistered",
          "type": "bool"
        }
      ],
      "stateMutability": "view",
      "type": "function",
      "constant": true
    },
    {
      "inputs": [
        {
          "internalType": "uint256",
          "name": "",
          "type": "uint256"
        },
        {
          "internalType": "uint256",
          "name": "",
          "type": "uint256"
        }
      ],
      "name": "voters",
      "outputs": [
        {
          "internalType": "address",
          "name": "",
          "type": "address"
        }
      ],
      "stateMutability": "view",
      "type": "function",
      "constant": true
    },
    {
      "inputs": [],
      "name": "getAdmin",
      "outputs": [
        {
          "internalType": "address",
          "name": "",
          "type": "address"
        }
      ],
      "stateMutability": "view",
      "type": "function",
      "constant": true
    },
    {
      "inputs": [],
      "name": "startNewElection",
      "outputs": [],
      "stateMutability": "nonpayable",
      "type": "function"
    },
    {
      "inputs": [
        {
          "internalType": "address",
          "name": "newOwner",
          "type": "address"
        }
      ],
      "name": "transferOwnership",
      "outputs": [],
      "stateMutability": "nonpayable",
      "type": "function"
    },
    {
      "inputs": [
        {
          "internalType": "address",
          "name": "newAdmin",
          "type": "address"
        }
      ],
      "name": "setAdmin",
      "outputs": [],
      "stateMutability": "nonpayable",
      "type": "function"
    },
    {
      "inputs": [
        {
          "internalType": "string",
          "name": "_header",
          "type": "string"
        },
        {
          "internalType": "string",
          "name": "_slogan",
          "type": "string"
        }
      ],
      "name": "addCandidate",
      "outputs": [],
      "stateMutability": "nonpayable",
      "type": "function"
    },
    {
      "inputs": [
        {
          "internalType": "string",
          "name": "_adminName",
          "type": "string"
        },
        {
          "internalType": "string",
          "name": "_adminEmail",
          "type": "string"
        },
        {
          "internalType": "string",
          "name": "_adminTitle",
          "type": "string"
        },
        {
          "internalType": "string",
          "name": "_electionTitle",
          "type": "string"
        },
        {
          "internalType": "string",
          "name": "_organizationTitle",
          "type": "string"
        }
      ],
      "name": "setElectionDetails",
      "outputs": [],
      "stateMutability": "nonpayable",
      "type": "function"
    },
    {
      "inputs": [],
      "name": "getElectionDetails",
      "outputs": [
        {
          "internalType": "string",
          "name": "adminName",
          "type": "string"
        },
        {
          "internalType": "string",
          "name": "adminEmail",
          "type": "string"
        },
        {
          "internalType": "string",
          "name": "adminTitle",
          "type": "string"
        },
        {
          "internalType": "string",
          "name": "electionTitle",
          "type": "string"
        },
        {
          "internalType": "string",
          "name": "organizationTitle",
          "type": "string"
        }
      ],
      "stateMutability": "view",
      "type": "function",
      "constant": true
    },
    {
      "inputs": [],
      "name": "getTotalCandidate",
      "outputs": [
        {
          "internalType": "uint256",
          "name": "",
          "type": "uint256"
        }
      ],
      "stateMutability": "view",
      "type": "function",
      "constant": true
    },
    {
      "inputs": [],
      "name": "getTotalVoter",
      "outputs": [
        {
          "internalType": "uint256",
          "name": "",
          "type": "uint256"
        }
      ],
      "stateMutability": "view",
      "type": "function",
      "constant": true
    },
    {
      "inputs": [
        {
          "internalType": "string",
          "name": "_name",
          "type": "string"
        },
        {
          "internalType": "string",
          "name": "_phone",
          "type": "string"
        }
      ],
      "name": "registerAsVoter",
      "outputs": [],
      "stateMutability": "nonpayable",
      "type": "function"
    },
    {
      "inputs": [
        {
          "internalType": "bool",
          "name": "_verifedStatus",
          "type": "bool"
        },
        {
          "internalType": "address",
          "name": "voterAddress",
          "type": "address"
        }
      ],
      "name": "verifyVoter",
      "outputs": [],
      "stateMutability": "nonpayable",
      "type": "function"
    },
    {
      "inputs": [
        {
          "internalType": "uint256",
          "name": "candidateId",
          "type": "uint256"
        }
      ],
      "name": "vote",
      "outputs": [],
      "stateMutability": "nonpayable",
      "type": "function"
    },
    {
      "inputs": [],
      "name": "endElection",
      "outputs": [],
      "stateMutability": "nonpayable",
      "type": "function"
    },
    {
      "inputs": [],
      "name": "getStart",
      "outputs": [
        {
          "internalType": "bool",
          "name": "",
          "type": "bool"
        }
      ],
      "stateMutability": "view",
      "type": "function",
      "constant": true
    },
    {
      "inputs": [],
      "name": "getEnd",
      "outputs": [
        {
          "internalType": "bool",
          "name": "",
          "type": "bool"
        }
      ],
      "stateMutability": "view",
      "type": "function",
      "constant": true
    }
  ],
  "bytecode": "0x608060405234801561001057600080fd5b50336000806101000a81548173ffffffffffffffffffffffffffffffffffffffff021916908373ffffffffffffffffffffffffffffffffffffffff16021790555033600160006101000a81548173ffffffffffffffffffffffffffffffffffffffff021916908373ffffffffffffffffffffffffffffffffffffffff1602179055506000600281905550612bea806100a96000396000f3fe608060405234801561001057600080fd5b506004361061018d5760003560e01c80636e9960c3116100de578063c5292c6711610097578063f2fde38b11610071578063f2fde38b14610482578063f851a4401461049e578063fba00cbd146104bc578063fee0d19a146104ec5761018d565b8063c5292c671461040f578063d343d52e1461042d578063ed836bc3146104605761018d565b80636e9960c314610339578063704b6c02146103575780638da5cb5b1461037357806395805dad146103915780639f05a36d146103c1578063b1ff97c1146103df5761018d565b806326541b561161014b578063506b8e0a11610125578063506b8e0a146102c557806359f78468146102e1578063603a60ff146102eb57806364d198a11461031b5761018d565b806326541b561461026a5780633a519fff1461028657806347f33fb5146102bb5761018d565b8062535947146101925780630121b93f146101c6578063051364d4146101e25780630ad24528146102005780630b93400e14610230578063253e74e21461024e575b600080fd5b6101ac60048036038101906101a79190611dd7565b610508565b6040516101bd959493929190611e94565b60405180910390f35b6101e060048036038101906101db9190611dd7565b6107e6565b005b6101ea610abc565b6040516101f79190611f19565b60405180910390f35b61021a60048036038101906102159190611dd7565b610ac2565b6040516102279190611f4f565b60405180910390f35b610238610ae2565b6040516102459190611f19565b60405180910390f35b6102686004803603810190610263919061209f565b610aff565b005b610284600480360381019061027f91906121a6565b610c9f565b005b6102a0600480360381019061029b919061227c565b610e0c565b6040516102b2969594939291906122cb565b60405180910390f35b6102c3610fac565b005b6102df60048036038101906102da9190612366565b611058565b005b6102e9611159565b005b61030560048036038101906103009190611dd7565b611247565b6040516103129190611f19565b60405180910390f35b61032361125f565b6040516103309190611f19565b60405180910390f35b61034161127c565b60405161034e91906123a6565b60405180910390f35b610371600480360381019061036c91906123c1565b6112a6565b005b61037b6113e7565b60405161038891906123a6565b60405180910390f35b6103ab60048036038101906103a69190611dd7565b61140b565b6040516103b89190611f4f565b60405180910390f35b6103c961142b565b6040516103d69190611f4f565b60405180910390f35b6103f960048036038101906103f49190611dd7565b611455565b6040516104069190611f19565b60405180910390f35b61041761146d565b6040516104249190611f4f565b60405180910390f35b610447600480360381019061044291906123ee565b611497565b604051610457949392919061242e565b60405180910390f35b6104686115e4565b604051610479959493929190611e94565b60405180910390f35b61049c600480360381019061049791906123c1565b611915565b005b6104a6611a55565b6040516104b391906123a6565b60405180910390f35b6104d660048036038101906104d191906123ee565b611a7b565b6040516104e391906123a6565b60405180910390f35b610506600480360381019061050191906121a6565b611ac9565b005b600860205280600052604060002060009150905080600001805461052b906124b0565b80601f0160208091040260200160405190810160405280929190818152602001828054610557906124b0565b80156105a45780601f10610579576101008083540402835291602001916105a4565b820191906000526020600020905b81548152906001019060200180831161058757829003601f168201915b5050505050908060010180546105b9906124b0565b80601f01602080910402602001604051908101604052809291908181526020018280546105e5906124b0565b80156106325780601f1061060757610100808354040283529160200191610632565b820191906000526020600020905b81548152906001019060200180831161061557829003601f168201915b505050505090806002018054610647906124b0565b80601f0160208091040260200160405190810160405280929190818152602001828054610673906124b0565b80156106c05780601f10610695576101008083540402835291602001916106c0565b820191906000526020600020905b8154815290600101906020018083116106a357829003601f168201915b5050505050908060030180546106d5906124b0565b80601f0160208091040260200160405190810160405280929190818152602001828054610701906124b0565b801561074e5780601f106107235761010080835404028352916020019161074e565b820191906000526020600020905b81548152906001019060200180831161073157829003601f168201915b505050505090806004018054610763906124b0565b80601f016020809104026020016040519081016040528092919081815260200182805461078f906124b0565b80156107dc5780601f106107b1576101008083540402835291602001916107dc565b820191906000526020600020905b8154815290600101906020018083116107bf57829003601f168201915b5050505050905085565b6000151560056000600254815260200190815260200160002060003373ffffffffffffffffffffffffffffffffffffffff1673ffffffffffffffffffffffffffffffffffffffff16815260200190815260200160002060030160019054906101000a900460ff1615151461088f576040517f08c379a00000000000000000000000000000000000000000000000000000000081526004016108869061252d565b60405180910390fd5b6001151560056000600254815260200190815260200160002060003373ffffffffffffffffffffffffffffffffffffffff1673ffffffffffffffffffffffffffffffffffffffff16815260200190815260200160002060030160009054906101000a900460ff16151514610938576040517f08c379a000000000000000000000000000000000000000000000000000000000815260040161092f90612599565b60405180910390fd5b6001151560096000600254815260200190815260200160002060009054906101000a900460ff161515146109a1576040517f08c379a000000000000000000000000000000000000000000000000000000000815260040161099890612605565b60405180910390fd5b60001515600a6000600254815260200190815260200160002060009054906101000a900460ff16151514610a0a576040517f08c379a0000000000000000000000000000000000000000000000000000000008152600401610a0190612671565b60405180910390fd5b600160036000600254815260200190815260200160002060008381526020019081526020016000206003016000828254610a4491906126c0565b92505081905550600160056000600254815260200190815260200160002060003373ffffffffffffffffffffffffffffffffffffffff1673ffffffffffffffffffffffffffffffffffffffff16815260200190815260200160002060030160016101000a81548160ff02191690831515021790555050565b60025481565b600a6020528060005260406000206000915054906101000a900460ff1681565b600060076000600254815260200190815260200160002054905090565b600160009054906101000a900473ffffffffffffffffffffffffffffffffffffffff1673ffffffffffffffffffffffffffffffffffffffff163373ffffffffffffffffffffffffffffffffffffffff1614610b8f576040517f08c379a0000000000000000000000000000000000000000000000000000000008152600401610b8690612740565b60405180910390fd5b6040518060a00160405280868152602001858152602001848152602001838152602001828152506008600060025481526020019081526020016000206000820151816000019081610be0919061290c565b506020820151816001019081610bf6919061290c565b506040820151816002019081610c0c919061290c565b506060820151816003019081610c22919061290c565b506080820151816004019081610c38919061290c565b50905050600160096000600254815260200190815260200160002060006101000a81548160ff0219169083151502179055506000600a6000600254815260200190815260200160002060006101000a81548160ff0219169083151502179055505050505050565b600160009054906101000a900473ffffffffffffffffffffffffffffffffffffffff1673ffffffffffffffffffffffffffffffffffffffff163373ffffffffffffffffffffffffffffffffffffffff1614610d2f576040517f08c379a0000000000000000000000000000000000000000000000000000000008152600401610d2690612740565b60405180910390fd5b60006004600060025481526020019081526020016000205490506000604051806080016040528083815260200185815260200184815260200160008152509050806003600060025481526020019081526020016000206000848152602001908152602001600020600082015181600001556020820151816001019081610db5919061290c565b506040820151816002019081610dcb919061290c565b506060820151816003015590505060016004600060025481526020019081526020016000206000828254610dff91906126c0565b9250508190555050505050565b6005602052816000526040600020602052806000526040600020600091509150508060000160009054906101000a900473ffffffffffffffffffffffffffffffffffffffff1690806001018054610e62906124b0565b80601f0160208091040260200160405190810160405280929190818152602001828054610e8e906124b0565b8015610edb5780601f10610eb057610100808354040283529160200191610edb565b820191906000526020600020905b815481529060010190602001808311610ebe57829003601f168201915b505050505090806002018054610ef0906124b0565b80601f0160208091040260200160405190810160405280929190818152602001828054610f1c906124b0565b8015610f695780601f10610f3e57610100808354040283529160200191610f69565b820191906000526020600020905b815481529060010190602001808311610f4c57829003601f168201915b5050505050908060030160009054906101000a900460ff16908060030160019054906101000a900460ff16908060030160029054906101000a900460ff16905086565b600160009054906101000a900473ffffffffffffffffffffffffffffffffffffffff1673ffffffffffffffffffffffffffffffffffffffff163373ffffffffffffffffffffffffffffffffffffffff161461103c576040517f08c379a000000000000000000000000000000000000000000000000000000000815260040161103390612740565b60405180910390fd5b60016002600082825461104f91906126c0565b92505081905550565b600160009054906101000a900473ffffffffffffffffffffffffffffffffffffffff1673ffffffffffffffffffffffffffffffffffffffff163373ffffffffffffffffffffffffffffffffffffffff16146110e8576040517f08c379a00000000000000000000000000000000000000000000000000000000081526004016110df90612740565b60405180910390fd5b8160056000600254815260200190815260200160002060008373ffffffffffffffffffffffffffffffffffffffff1673ffffffffffffffffffffffffffffffffffffffff16815260200190815260200160002060030160006101000a81548160ff0219169083151502179055505050565b600160009054906101000a900473ffffffffffffffffffffffffffffffffffffffff1673ffffffffffffffffffffffffffffffffffffffff163373ffffffffffffffffffffffffffffffffffffffff16146111e9576040517f08c379a00000000000000000000000000000000000000000000000000000000081526004016111e090612740565b60405180910390fd5b6001600a6000600254815260200190815260200160002060006101000a81548160ff021916908315150217905550600060096000600254815260200190815260200160002060006101000a81548160ff021916908315150217905550565b60076020528060005260406000206000915090505481565b600060046000600254815260200190815260200160002054905090565b6000600160009054906101000a900473ffffffffffffffffffffffffffffffffffffffff16905090565b60008054906101000a900473ffffffffffffffffffffffffffffffffffffffff1673ffffffffffffffffffffffffffffffffffffffff163373ffffffffffffffffffffffffffffffffffffffff1614611334576040517f08c379a000000000000000000000000000000000000000000000000000000000815260040161132b90612a2a565b60405180910390fd5b600073ffffffffffffffffffffffffffffffffffffffff168173ffffffffffffffffffffffffffffffffffffffff16036113a3576040517f08c379a000000000000000000000000000000000000000000000000000000000815260040161139a90612a96565b60405180910390fd5b80600160006101000a81548173ffffffffffffffffffffffffffffffffffffffff021916908373ffffffffffffffffffffffffffffffffffffffff16021790555050565b60008054906101000a900473ffffffffffffffffffffffffffffffffffffffff1681565b60096020528060005260406000206000915054906101000a900460ff1681565b6000600a6000600254815260200190815260200160002060009054906101000a900460ff16905090565b60046020528060005260406000206000915090505481565b600060096000600254815260200190815260200160002060009054906101000a900460ff16905090565b6003602052816000526040600020602052806000526040600020600091509150508060000154908060010180546114cd906124b0565b80601f01602080910402602001604051908101604052809291908181526020018280546114f9906124b0565b80156115465780601f1061151b57610100808354040283529160200191611546565b820191906000526020600020905b81548152906001019060200180831161152957829003601f168201915b50505050509080600201805461155b906124b0565b80601f0160208091040260200160405190810160405280929190818152602001828054611587906124b0565b80156115d45780601f106115a9576101008083540402835291602001916115d4565b820191906000526020600020905b8154815290600101906020018083116115b757829003601f168201915b5050505050908060030154905084565b606080606080606060006008600060025481526020019081526020016000206040518060a001604052908160008201805461161e906124b0565b80601f016020809104026020016040519081016040528092919081815260200182805461164a906124b0565b80156116975780601f1061166c57610100808354040283529160200191611697565b820191906000526020600020905b81548152906001019060200180831161167a57829003601f168201915b505050505081526020016001820180546116b0906124b0565b80601f01602080910402602001604051908101604052809291908181526020018280546116dc906124b0565b80156117295780601f106116fe57610100808354040283529160200191611729565b820191906000526020600020905b81548152906001019060200180831161170c57829003601f168201915b50505050508152602001600282018054611742906124b0565b80601f016020809104026020016040519081016040528092919081815260200182805461176e906124b0565b80156117bb5780601f10611790576101008083540402835291602001916117bb565b820191906000526020600020905b81548152906001019060200180831161179e57829003601f168201915b505050505081526020016003820180546117d4906124b0565b80601f0160208091040260200160405190810160405280929190818152602001828054611800906124b0565b801561184d5780601f106118225761010080835404028352916020019161184d565b820191906000526020600020905b81548152906001019060200180831161183057829003601f168201915b50505050508152602001600482018054611866906124b0565b80601f0160208091040260200160405190810160405280929190818152602001828054611892906124b0565b80156118df5780601f106118b4576101008083540402835291602001916118df565b820191906000526020600020905b8154815290600101906020018083116118c257829003601f168201915b50505050508152505090508060000151816020015182604001518360600151846080015195509550955095509550509091929394565b60008054906101000a900473ffffffffffffffffffffffffffffffffffffffff1673ffffffffffffffffffffffffffffffffffffffff163373ffffffffffffffffffffffffffffffffffffffff16146119a3576040517f08c379a000000000000000000000000000000000000000000000000000000000815260040161199a90612a2a565b60405180910390fd5b600073ffffffffffffffffffffffffffffffffffffffff168173ffffffffffffffffffffffffffffffffffffffff1603611a12576040517f08c379a0000000000000000000000000000000000000000000000000000000008152600401611a0990612b02565b60405180910390fd5b806000806101000a81548173ffffffffffffffffffffffffffffffffffffffff021916908373ffffffffffffffffffffffffffffffffffffffff16021790555050565b600160009054906101000a900473ffffffffffffffffffffffffffffffffffffffff1681565b60066020528160005260406000208181548110611a9757600080fd5b906000526020600020016000915091509054906101000a900473ffffffffffffffffffffffffffffffffffffffff1681565b60056000600254815260200190815260200160002060003373ffffffffffffffffffffffffffffffffffffffff1673ffffffffffffffffffffffffffffffffffffffff16815260200190815260200160002060030160029054906101000a900460ff1615611b6c576040517f08c379a0000000000000000000000000000000000000000000000000000000008152600401611b6390612b94565b60405180910390fd5b60006040518060c001604052803373ffffffffffffffffffffffffffffffffffffffff1681526020018481526020018381526020016000151581526020016000151581526020016001151581525090508060056000600254815260200190815260200160002060003373ffffffffffffffffffffffffffffffffffffffff1673ffffffffffffffffffffffffffffffffffffffff16815260200190815260200160002060008201518160000160006101000a81548173ffffffffffffffffffffffffffffffffffffffff021916908373ffffffffffffffffffffffffffffffffffffffff1602179055506020820151816001019081611c6b919061290c565b506040820151816002019081611c81919061290c565b5060608201518160030160006101000a81548160ff02191690831515021790555060808201518160030160016101000a81548160ff02191690831515021790555060a08201518160030160026101000a81548160ff021916908315150217905550905050600660006002548152602001908152602001600020339080600181540180825580915050600190039060005260206000200160009091909190916101000a81548173ffffffffffffffffffffffffffffffffffffffff021916908373ffffffffffffffffffffffffffffffffffffffff16021790555060016007600060025481526020019081526020016000206000828254611d8191906126c0565b92505081905550505050565b6000604051905090565b600080fd5b600080fd5b6000819050919050565b611db481611da1565b8114611dbf57600080fd5b50565b600081359050611dd181611dab565b92915050565b600060208284031215611ded57611dec611d97565b5b6000611dfb84828501611dc2565b91505092915050565b600081519050919050565b600082825260208201905092915050565b60005b83811015611e3e578082015181840152602081019050611e23565b60008484015250505050565b6000601f19601f8301169050919050565b6000611e6682611e04565b611e708185611e0f565b9350611e80818560208601611e20565b611e8981611e4a565b840191505092915050565b600060a0820190508181036000830152611eae8188611e5b565b90508181036020830152611ec28187611e5b565b90508181036040830152611ed68186611e5b565b90508181036060830152611eea8185611e5b565b90508181036080830152611efe8184611e5b565b90509695505050505050565b611f1381611da1565b82525050565b6000602082019050611f2e6000830184611f0a565b92915050565b60008115159050919050565b611f4981611f34565b82525050565b6000602082019050611f646000830184611f40565b92915050565b600080fd5b600080fd5b7f4e487b7100000000000000000000000000000000000000000000000000000000600052604160045260246000fd5b611fac82611e4a565b810181811067ffffffffffffffff82111715611fcb57611fca611f74565b5b80604052505050565b6000611fde611d8d565b9050611fea8282611fa3565b919050565b600067ffffffffffffffff82111561200a57612009611f74565b5b61201382611e4a565b9050602081019050919050565b82818337600083830152505050565b600061204261203d84611fef565b611fd4565b90508281526020810184848401111561205e5761205d611f6f565b5b612069848285612020565b509392505050565b600082601f83011261208657612085611f6a565b5b813561209684826020860161202f565b91505092915050565b600080600080600060a086880312156120bb576120ba611d97565b5b600086013567ffffffffffffffff8111156120d9576120d8611d9c565b5b6120e588828901612071565b955050602086013567ffffffffffffffff81111561210657612105611d9c565b5b61211288828901612071565b945050604086013567ffffffffffffffff81111561213357612132611d9c565b5b61213f88828901612071565b935050606086013567ffffffffffffffff8111156121605761215f611d9c565b5b61216c88828901612071565b925050608086013567ffffffffffffffff81111561218d5761218c611d9c565b5b61219988828901612071565b9150509295509295909350565b600080604083850312156121bd576121bc611d97565b5b600083013567ffffffffffffffff8111156121db576121da611d9c565b5b6121e785828601612071565b925050602083013567ffffffffffffffff81111561220857612207611d9c565b5b61221485828601612071565b9150509250929050565b600073ffffffffffffffffffffffffffffffffffffffff82169050919050565b60006122498261221e565b9050919050565b6122598161223e565b811461226457600080fd5b50565b60008135905061227681612250565b92915050565b6000806040838503121561229357612292611d97565b5b60006122a185828601611dc2565b92505060206122b285828601612267565b9150509250929050565b6122c58161223e565b82525050565b600060c0820190506122e060008301896122bc565b81810360208301526122f28188611e5b565b905081810360408301526123068187611e5b565b90506123156060830186611f40565b6123226080830185611f40565b61232f60a0830184611f40565b979650505050505050565b61234381611f34565b811461234e57600080fd5b50565b6000813590506123608161233a565b92915050565b6000806040838503121561237d5761237c611d97565b5b600061238b85828601612351565b925050602061239c85828601612267565b9150509250929050565b60006020820190506123bb60008301846122bc565b92915050565b6000602082840312156123d7576123d6611d97565b5b60006123e584828501612267565b91505092915050565b6000806040838503121561240557612404611d97565b5b600061241385828601611dc2565b925050602061242485828601611dc2565b9150509250929050565b60006080820190506124436000830187611f0a565b81810360208301526124558186611e5b565b905081810360408301526124698185611e5b565b90506124786060830184611f0a565b95945050505050565b7f4e487b7100000000000000000000000000000000000000000000000000000000600052602260045260246000fd5b600060028204905060018216806124c857607f821691505b6020821081036124db576124da612481565b5b50919050565b7f416c726561647920766f74656400000000000000000000000000000000000000600082015250565b6000612517600d83611e0f565b9150612522826124e1565b602082019050919050565b600060208201905081810360008301526125468161250a565b9050919050565b7f4e6f742076657269666965640000000000000000000000000000000000000000600082015250565b6000612583600c83611e0f565b915061258e8261254d565b602082019050919050565b600060208201905081810360008301526125b281612576565b9050919050565b7f456c656374696f6e206e6f742073746172746564000000000000000000000000600082015250565b60006125ef601483611e0f565b91506125fa826125b9565b602082019050919050565b6000602082019050818103600083015261261e816125e2565b9050919050565b7f456c656374696f6e20656e646564000000000000000000000000000000000000600082015250565b600061265b600e83611e0f565b915061266682612625565b602082019050919050565b6000602082019050818103600083015261268a8161264e565b9050919050565b7f4e487b7100000000000000000000000000000000000000000000000000000000600052601160045260246000fd5b60006126cb82611da1565b91506126d683611da1565b92508282019050808211156126ee576126ed612691565b5b92915050565b7f4f6e6c792061646d696e2063616e2063616c6c20746869730000000000000000600082015250565b600061272a601883611e0f565b9150612735826126f4565b602082019050919050565b600060208201905081810360008301526127598161271d565b9050919050565b60008190508160005260206000209050919050565b60006020601f8301049050919050565b600082821b905092915050565b6000600883026127c27fffffffffffffffffffffffffffffffffffffffffffffffffffffffffffffffff82612785565b6127cc8683612785565b95508019841693508086168417925050509392505050565b6000819050919050565b60006128096128046127ff84611da1565b6127e4565b611da1565b9050919050565b6000819050919050565b612823836127ee565b61283761282f82612810565b848454612792565b825550505050565b600090565b61284c61283f565b61285781848461281a565b505050565b5b8181101561287b57612870600082612844565b60018101905061285d565b5050565b601f8211156128c05761289181612760565b61289a84612775565b810160208510156128a9578190505b6128bd6128b585612775565b83018261285c565b50505b505050565b600082821c905092915050565b60006128e3600019846008026128c5565b1980831691505092915050565b60006128fc83836128d2565b9150826002028217905092915050565b61291582611e04565b67ffffffffffffffff81111561292e5761292d611f74565b5b61293882546124b0565b61294382828561287f565b600060209050601f8311600181146129765760008415612964578287015190505b61296e85826128f0565b8655506129d6565b601f19841661298486612760565b60005b828110156129ac57848901518255600182019150602085019450602081019050612987565b868310156129c957848901516129c5601f8916826128d2565b8355505b6001600288020188555050505b505050505050565b7f4f6e6c79206f776e65722063616e2063616c6c20746869730000000000000000600082015250565b6000612a14601883611e0f565b9150612a1f826129de565b602082019050919050565b60006020820190508181036000830152612a4381612a07565b9050919050565b7f4e65772061646d696e20616464726573732063616e6e6f74206265207a65726f600082015250565b6000612a80602083611e0f565b9150612a8b82612a4a565b602082019050919050565b60006020820190508181036000830152612aaf81612a73565b9050919050565b7f4e6577206f776e657220616464726573732063616e6e6f74206265207a65726f600082015250565b6000612aec602083611e0f565b9150612af782612ab6565b602082019050919050565b60006020820190508181036000830152612b1b81612adf565b9050919050565b7f416c7265616479207265676973746572656420696e207468697320736573736960008201527f6f6e000000000000000000000000000000000000000000000000000000000000602082015250565b6000612b7e602283611e0f565b9150612b8982612b22565b604082019050919050565b60006020820190508181036000830152612bad81612b71565b905091905056fea26469706673582212206e6220fdf414f24f5b96f97cf506b4520df3c6e67c0141408aac66dc602aaf2864736f6c63430008130033",
  "immutableReferences": {},
  "source": "// SPDX-License-Identifier: MIT\r\npragma solidity ^0.8.0;\r\n\r\ncontract Election {\r\n    address public owner; // NEW: Owner role\r\n    address public admin;\r\n    uint256 public electionId; // Current election session ID\r\n    \r\n    struct Candidate {\r\n        uint256 candidateId;\r\n        string header;\r\n        string slogan;\r\n        uint256 voteCount;\r\n    }\r\n\r\n    struct Voter {\r\n        address voterAddress;\r\n        string name;\r\n        string phone;\r\n        bool isVerified;\r\n        bool hasVoted;\r\n        bool isRegistered;\r\n    }\r\n\r\n    struct ElectionDetails {\r\n        string adminName;\r\n        string adminEmail;\r\n        string adminTitle;\r\n        string electionTitle;\r\n        string organizationTitle;\r\n    }\r\n\r\n    // Mapping: electionId => candidateId => Candidate\r\n    mapping(uint256 => mapping(uint256 => Candidate)) public candidateDetails;\r\n    // Mapping: electionId => candidateCount\r\n    mapping(uint256 => uint256) public candidateCount;\r\n    \r\n    // Mapping: electionId => voterAddress => Voter\r\n    mapping(uint256 => mapping(address => Voter)) public voterDetails;\r\n    // Mapping: electionId => list of voter addresses\r\n    mapping(uint256 => address[]) public voters;\r\n    // Mapping: electionId => voterCount\r\n    mapping(uint256 => uint256) public voterCount;\r\n    \r\n    // Mapping: electionId => ElectionDetails\r\n    mapping(uint256 => ElectionDetails) public electionDetails;\r\n    \r\n    mapping(uint256 => bool) public start;\r\n    mapping(uint256 => bool) public end;\r\n\r\n    constructor() {\r\n        owner = msg.sender; // NEW: Deployer becomes Owner\r\n        admin = msg.sender;\r\n        electionId = 0;\r\n    }\r\n\r\n    function getAdmin() public view returns (address) {\r\n        return admin;\r\n    }\r\n\r\n    // NEW: onlyOwner modifier\r\n    modifier onlyOwner() {\r\n        require(msg.sender == owner, \"Only owner can call this\");\r\n        _;\r\n    }\r\n\r\n    modifier onlyAdmin() {\r\n        require(msg.sender == admin, \"Only admin can call this\");\r\n        _;\r\n    }\r\n\r\n    // Start a brand new election cycle (Restart)\r\n    function startNewElection() public onlyAdmin {\r\n        electionId += 1;\r\n    }\r\n\r\n    // --- NEW: Owner functions ---\r\n    \r\n    // Owner can transfer ownership to another address\r\n    function transferOwnership(address newOwner) public onlyOwner {\r\n        require(newOwner != address(0), \"New owner address cannot be zero\");\r\n        owner = newOwner;\r\n    }\r\n\r\n    // Owner can assign or change the Admin\r\n    function setAdmin(address newAdmin) public onlyOwner {\r\n        require(newAdmin != address(0), \"New admin address cannot be zero\");\r\n        admin = newAdmin;\r\n    }\r\n    \r\n    // ----------------------------\r\n\r\n    // Adding new candidates for the current electionId\r\n    function addCandidate(string memory _header, string memory _slogan)\r\n        public\r\n        onlyAdmin\r\n    {\r\n        uint256 currentId = candidateCount[electionId];\r\n        Candidate memory newCandidate =\r\n            Candidate({\r\n                candidateId: currentId,\r\n                header: _header,\r\n                slogan: _slogan,\r\n                voteCount: 0\r\n            });\r\n        candidateDetails[electionId][currentId] = newCandidate;\r\n        candidateCount[electionId] += 1;\r\n    }\r\n\r\n    function setElectionDetails(\r\n        string memory _adminName,\r\n        string memory _adminEmail,\r\n        string memory _adminTitle,\r\n        string memory _electionTitle,\r\n        string memory _organizationTitle\r\n    )\r\n        public\r\n        onlyAdmin\r\n    {\r\n        electionDetails[electionId] = ElectionDetails(\r\n            _adminName,\r\n            _adminEmail,\r\n            _adminTitle,\r\n            _electionTitle,\r\n            _organizationTitle\r\n        );\r\n        start[electionId] = true;\r\n        end[electionId] = false;\r\n    }\r\n\r\n    // Get Elections details for current session\r\n    function getElectionDetails()\r\n    public\r\n    view\r\n    returns(string memory adminName, \r\n    string memory adminEmail, \r\n    string memory adminTitle, \r\n    string memory electionTitle, \r\n    string memory organizationTitle){\r\n        ElectionDetails memory ed = electionDetails[electionId];\r\n        return(ed.adminName, \r\n        ed.adminEmail, \r\n        ed.adminTitle, \r\n        ed.electionTitle, \r\n        ed.organizationTitle);\r\n    }\r\n\r\n    function getTotalCandidate() public view returns (uint256) {\r\n        return candidateCount[electionId];\r\n    }\r\n\r\n    function getTotalVoter() public view returns (uint256) {\r\n        return voterCount[electionId];\r\n    }\r\n\r\n    // Request to be added as voter for current session\r\n    function registerAsVoter(string memory _name, string memory _phone) public {\r\n        require(!voterDetails[electionId][msg.sender].isRegistered, \"Already registered in this session\");\r\n        Voter memory newVoter =\r\n            Voter({\r\n                voterAddress: msg.sender,\r\n                name: _name,\r\n                phone: _phone,\r\n                hasVoted: false,\r\n                isVerified: false,\r\n                isRegistered: true\r\n            });\r\n        voterDetails[electionId][msg.sender] = newVoter;\r\n        voters[electionId].push(msg.sender);\r\n        voterCount[electionId] += 1;\r\n    }\r\n\r\n    // Verify voter for current session\r\n    function verifyVoter(bool _verifedStatus, address voterAddress)\r\n        public\r\n        onlyAdmin\r\n    {\r\n        voterDetails[electionId][voterAddress].isVerified = _verifedStatus;\r\n    }\r\n\r\n    // Vote in the current session\r\n    function vote(uint256 candidateId) public {\r\n        require(voterDetails[electionId][msg.sender].hasVoted == false, \"Already voted\");\r\n        require(voterDetails[electionId][msg.sender].isVerified == true, \"Not verified\");\r\n        require(start[electionId] == true, \"Election not started\");\r\n        require(end[electionId] == false, \"Election ended\");\r\n        candidateDetails[electionId][candidateId].voteCount += 1;\r\n        voterDetails[electionId][msg.sender].hasVoted = true;\r\n    }\r\n\r\n    function endElection() public onlyAdmin {\r\n        end[electionId] = true;\r\n        start[electionId] = false;\r\n    }\r\n\r\n    function getStart() public view returns (bool) {\r\n        return start[electionId];\r\n    }\r\n\r\n    function getEnd() public view returns (bool) {\r\n        return end[electionId];\r\n    }\r\n}\r\n",
  "sourcePath": "C:\\Users\\Abhay\\Desktop\\dVoting\\contracts\\Election.sol",
  "compiler": {
    "name": "solc",
    "version": "0.8.19+commit.7dd6d404.Emscripten.clang"
  },
  "schemaVersion": "3.4.16",
  "updatedAt": "2026-03-15T08:13:35.144Z",
  "networkType": "ethereum",
  "devdoc": {
    "kind": "dev",
    "methods": {},
    "version": 1
  },
  "userdoc": {
    "kind": "user",
    "methods": {},
    "version": 1
  }
}